S013000073656E736F725F746573742E7372656358
S113000045C0000060C000005EC000005CC000008D
S11300105AC0000058C0000056C0000054C0000080
S113002052C0000050C000004EC000004CC0000090
S11300304AC000007EC0000046C0000044C000006A
S113004042C0000040C000003EC000003CC00000B0
S11300503AC0000038C0000036C0000034C00000C0
S113006032C0000030C000002EC000002CC00000D0
S11300702AC0000028C0000026C0000024C00000E0
S113008022C0000020C000001EC0000011241FBEBA
S1130090CFEFD0E4DEBFCDBF11E0A0E0B1E0E2E9F4
S11300A0F3E000E00BBF02C007900D92A630B10749
S11300B0D9F721E0A6E0B1E001C01D92A831B20752
S11300C0E1F7CCD064C19CCF60930101709302012D
S11300D080930301909304016093120170931301C0
S11300E0809314019093150108958BE0809381000F
S11300F08DE790E0909389008093880082E080935C
S11301006F001092850010928400809101019091FB
S11301100201A0910301B091040180931201909314
S11301201301A0931401B09315018FB780688FBF9A
S113013008951F920F920FB60F9211248F939F93DD
S1130140AF93BF938091120190911301A091140178
S1130150B09115010197A109B109809312019093FF
S11301601301A0931401B0931501892B8A2B8B2BB7
S113017099F481E08093160180910101909102012C
S1130180A0910301B0910401809312019093130193
S1130190A0931401B0931501BF91AF919F918F91DA
S11301A00F900FBE0F901F90189520E030E061E093
S11301B070E0479A469898B1AB01022E02C0440FF2
S11301C0551F0A94E2F7482311F0906101C09F7E05
S11301D098B9469A2F5F3F4F2830310551F7459A19
S11301E04798089580911701813021F128F08230D9
S11301F039F0833059F018C081E0809317011AC098
S113020018991EC083E08093170120C0189B04C076
S113021082E08093170114C0809111018E31B0F0F7
S113022081E08093170106C0109217018091170195
S113023090E008951092110112B880E0B6DFF6CF75
S11302401092110180910001B0DFF0CF8091110173
S11302508F5F809311018AEAA8DFE8CF8FEF81B91D
S113026012B814B815B887B918B804E610E0D0E08D
S1130270C0E051E040E030E020E004C0062F172F3A
S1130280D82FC92F652F742F832F922F202F312F12
S11302904D2F5C2F5AD0502F412F3D2F2C2F6115FD
S11302A071058105910551F764E670E080E090E006
S11302B0202F312F4D2F5C2F48D0E6E0F1E08FEF57
S11302C08083218332834383548325833683478306
S11302D0508782EF90E092878187602F712F8D2F56
S11302E09C2FF2DE02DF479A45988AEA5EDFC6E079
S11302F0D1E04D815E816F81788589819A81AB815E
S1130300BC81481759076A077B0761F48881E9852E
S1130310FA85082E000C990B099588831D821E828C
S11303201F8218868D819E81AF81B8850196A11D9B
S1130330B11D8D839E83AF83B88745988091160144
S11303408823E1F310921601D4CFA1E21A2EAA1B3E
S1130350BB1BFD010DC0AA1FBB1FEE1FFF1FA21771
S1130360B307E407F50720F0A21BB30BE40BF50B6E
S1130370661F771F881F991F1A9469F760957095F7
S1130380809590959B01AC01BD01CF010895F8942F
S1050390FFCF99
S1090392FF010000000061
S9030000FC
