:1000000045C0000060C000005EC000005CC0000091
:100010005AC0000058C0000056C0000054C0000084
:1000200052C0000050C000004EC000004CC0000094
:100030004AC000007EC0000046C0000044C000006E
:1000400042C0000040C000003EC000003CC00000B4
:100050003AC0000038C0000036C0000034C00000C4
:1000600032C0000030C000002EC000002CC00000D4
:100070002AC0000028C0000026C0000024C00000E4
:1000800022C0000020C000001EC0000011241FBEBE
:10009000CFEFD0E4DEBFCDBF11E0A0E0B1E0EAECED
:1000A000F5E000E00BBF02C007900D92AA30B10747
:1000B000D9F721E0AAE0B1E001C01D92A833B20750
:1000C000E1F771D180C29CCF609300017093010170
:1000D000809302019093030160933001709331018A
:1000E000809332019093330108958BE080939100C7
:1000F0008DE790E0909399008093980082E0809340
:100100006F00109285001092840080910001909100
:100110000101A0910201B0910301809330019093FD
:100120003101A0933201B09333018FB780688FBF44
:1001300008951F920F920FB60F9211248F939F93E1
:10014000AF93BF938091300190913101A091320122
:10015000B09133010197A109B109809330019093C7
:100160003101A0933201B0933301892B8A2B8B2B61
:1001700099F481E080933401809100019091010114
:10018000A0910201B091030180933001909331015D
:10019000A0933201B0933301BF91AF919F918F91A2
:1001A0000F900FBE0F901F90189520E030E061E097
:1001B00070E0479A469898B1AB01022E02C0440FF6
:1001C000551F0A94E2F7482311F0906101C09F7E09
:1001D00098B9469A2F5F3F4F2830310551F7459A1D
:1001E00047980895809135018230A9F028F488233A
:1001F00041F0813051F03FC08330E9F0843059F153
:100200003AC081E08093350138C0499936C084E016
:100210008093350132C04A9B06C0499B04C083E0ED
:100220008093350131C04A9902C049992AC084E0BF
:100230008093350122C04A9B02C0499925C04A9942
:1002400006C0499B04C082E0809335011AC084E057
:100250008093350112C0499B10C0499B08C0809112
:100260002F01811104C081E08093350106C083E035
:100270008093350109C0109235018091350190E0DD
:1002800008958FEF92DFF9CF80E08FDFF6CFECE7B4
:10029000F0E09081987F8770892B8083EAE7F0E017
:1002A000808180648083808186FDFDCF809178008D
:1002B000909179000895CF93DF93EC0180E0E7DF20
:1002C00090932E0180932D0181E0E1DF90932C012A
:1002D00080932B01229708F05EC080912D019091B0
:1002E0002E01863B23E0920750F187B58823F1F079
:1002F00087B5825087BD88B5825088BDE8E9F0E0B7
:1003000080819181029791838083EAE9F0E0808186
:100310009181029791838083E3EBF0E080818250AA
:100320008083E4EBF0E080818250808383ED90E372
:100330000197F1F700C0000081E090E031C0C39761
:1003400068F587B58D3FF0F487B58E5F87BD88B5BA
:100350008E5F88BDE8E9F0E080819181029691830B
:100360008083EAE9F0E08081918102969183808325
:10037000E3EBF0E080818E5F8083E4EBF0E080814E
:100380008E5F808383ED90E30197F1F700C000005A
:1003900081E090E005C080E090E002C081E090E064
:1003A000DF91CF910895CF93DF9300D000D000D09C
:1003B000CDB7DEB78FEF81B912B887B918B81AB8C0
:1003C0008BB914E600E0F12CE12C51E040E030E084
:1003D00020E004C0162F072FF82EE92E652F742F6A
:1003E000832F922F212F302F4F2D5E2DCAD0512FCA
:1003F000402F3F2D2E2D611571058105910551F777
:100400000F2EF4E6DF2EF02DC12CB12CA12C04C050
:10041000D62EC72EB82EA92E612F702F8F2D9E2D70
:100420002D2D3C2D4B2D5A2DACD01D2D0C2DFB2CE4
:10043000EA2C611571058105910551F70F2EF4E63F
:10044000EF2EF02DF12C00E010E004C0E62EF72E88
:10045000082F192F6D2D7C2D8B2D9A2D2E2D3F2D94
:10046000402F512F8ED0DE2CCF2CB02EA12E611517
:1004700071058105910551F764E670E080E090E038
:100480002E2D3F2D402F512F7CD086E0E4E0F1E06F
:10049000DE01119601900D928A95E1F7E0E2F1E01C
:1004A0008FEF808321833283438354832583368374
:1004B00047835087A5E1B1E08C9311962D933D932E
:1004C0004D935C93149715962D933D934D935C93A8
:1004D000189782EF90E01A969C938E9319978BE56C
:1004E00091E0928781876E2D7F2D802F912FECDDFB
:1004F000FCDD479A45988AE058DE7E0187E0E80EE9
:10050000F11CDE0111966D01F601019111916F014F
:10051000D80115964D915D916D917C91189711962A
:100520008D919D910D90BC91A02D481759076A0798
:100530007B0781F4F80180810184F285E02D082E8B
:10054000000C990B0995D8018C93F801158216823D
:1005500017821086F80185819681A781B085019662
:10056000A11DB11D85839683A783B0874598CE14BE
:10057000DF0451F6809134018823E1F310923401B5
:10058000C0CFA1E21A2EAA1BBB1BFD010DC0AA1FE2
:10059000BB1FEE1FFF1FA217B307E407F50720F0EC
:1005A000A21BB30BE40BF50B661F771F881F991F67
:1005B0001A9469F760957095809590959B01AC01B0
:0A05C000BD01CF010895F894FFCFAC
:0A05CA0001000000200115010A01E4
:00000001FF
