:1000000054C000006FC000006DC000006BC0000055
:1000100069C0000067C0000065C0000063C0000048
:1000200061C000005FC000005DC000005BC0000058
:1000300059C0000088C1000055C0000053C0000036
:1000400051C000004FC000004DC000004BC0000078
:1000500049C0000047C0000045C0000043C0000088
:1000600041C000003FC000003DC000003BC0000098
:1000700039C0000037C0000035C0000033C00000A8
:1000800031C000002FC000002DC000007F008300A1
:100090009800A400C800D600C000C4000B010F01E6
:1000A000150125013E014E01520111241FBECFEF63
:1000B000D0E4DEBFCDBF11E0A0E0B1E0E2E1F7E0C7
:1000C00000E00BBF02C007900D92AA30B107D9F72C
:1000D00021E0AAE0B1E001C01D92A933B207E1F727
:1000E000F8D115C38DCFE09137018E2F90E0883085
:1000F000910508F061C0FC01EA5BFF4FFFC281E09F
:10010000809337015FC030990DC086E0809337013E
:1001100080E887BD88BD8093B4008093B3008FEFE3
:100120008BB94CC031994EC084E08093370160C0D8
:10013000309B55C0319904C084E08093370158C08A
:1001400083E0809337014EC0309904C082E08093F1
:10015000370145C0319904C084E08093370148C01D
:10016000809130018431F0F187E0809337018FEF87
:1001700087BD88BD8093B4008093B3001BB81EC0B8
:1001800082E0809337012BC081E0809337011AC051
:10019000319B2EC080912F01811104C085E0809396
:1001A000370129C081E0809337010CC0319923C009
:1001B00084E0809337011CC0109237018091370191
:1001C00090E0089510922F01109230018FEF87BDBB
:1001D00088BD8093B3008093B4001BB8EFCF10921A
:1001E0003001ECCF809130018F5F80933001E6CFFA
:1001F00010923001E3CF81E080932F01DFCFE091B7
:1002000036018E2F90E08730910508F04FC0FC0139
:10021000E25BFF4F73C281E08093360149C03199A0
:1002200047C084E08093360143C0329B06C0319BB7
:1002300004C086E08093360148C0329902C03199EB
:1002400037C084E08093360133C0329B02C03199BD
:1002500033C032990FC0319B0DC085E080933601C9
:1002600080E887BD88BD9FEF9BB98093B4008093E1
:10027000B3001EC084E0809336011AC0319B18C0C1
:10028000319B08C080912F01811104C081E08093CF
:1002900036010EC086E08093360117C082E080935D
:1002A000360106C083E08093360106C01092360105
:1002B0008091360190E008958FEF87BD88BD1BB80F
:1002C0008093B4008093B300F3CF8FEF87BD88BDD8
:1002D0008093B4008093B3001BB8EACF6093000111
:1002E00070930101809302019093030160933101A7
:1002F00070933201809333019093340108958BE021
:10030000809381008DE790E090938900809388002E
:1003100082E080936F00109285001092840080919B
:10032000000190910101A0910201B091030180931D
:10033000310190933201A0933301B09334018FB710
:1003400080688FBF08951F920F920FB60F921124ED
:100350008F939F93AF93BF9380913101909132011E
:10036000A0913301B09134010197A109B1098093A3
:10037000310190933201A0933301B0933401892B62
:100380008A2B8B2B99F481E08093350180910001B9
:1003900090910101A0910201B0910301809331017C
:1003A00090933201A0933301B0933401BF91AF9188
:1003B0009F918F910F900FBE0F901F90189593EF04
:1003C00094BD81E085BD9093B0008093B1008FEF24
:1003D00087BD88BD8093B4008093B300089580E406
:1003E00080937C0087E880937A000895ECE7F0E042
:1003F0009081987F8770892B8083EAE7F0E0808185
:1004000080648083808186FDFDCF8091780090910B
:1004100079000895CF93DF93EC0180E0E7DF9093BC
:100420002E0180932D0181E0E1DF90932C018093D8
:100430002B01229708F045C080912D0190912E014B
:10044000863B23E09207F8F087B58F3F99F087B598
:10045000882381F087B5825087BD88B5825088BDDA
:10046000E3EBF0E0808182508083E4EBF0E0808178
:100470008250808383ED90E30197F1F700C0000084
:1004800081E090E023C0C397F8F487B58D3F80F4F6
:1004900087B58E5F87BD88B58E5F88BDE3EBF0E0E2
:1004A00080818E5F8083E4EBF0E080818E5F8083CB
:1004B00083ED90E30197F1F700C0000081E090E048
:1004C00005C080E090E002C081E090E0DF91CF9134
:1004D0000895CF93DF9300D000D000D0CDB7DEB722
:1004E00011B88FEF84B917B888B98AB912E300E060
:1004F000F12CE12C51E040E030E020E004C0162F68
:10050000072FF82EE92E652F742F832F922F212F7E
:10051000302F4F2D5E2DD0D0512F402F3F2D2E2D1F
:10052000611571058105910551F70F2EF2E3DF2E5C
:10053000F02DC12CB12CA12C04C0D62EC72EB82E64
:10054000A92E612F702F8F2D9E2D2D2D3C2D4B2DE3
:100550005A2DB2D01D2D0C2DFB2CEA2C61157105E6
:100560008105910551F70F2EF2E3EF2EF02DF12CBE
:1005700000E010E004C0E62EF72E082F192F6D2D95
:100580007C2D8B2D9A2D2E2D3F2D402F512F94D029
:10059000DE2CCF2CB02EA12E6115710581059105A1
:1005A00051F762E370E080E090E02E2D3F2D402F68
:1005B000512F82D086E0E4E0F1E0DE011196019057
:1005C0000D928A95E1F7E0E2F1E08FEF80832183DD
:1005D000328343835483258336834783508763E77D
:1005E00070E072876187E5E1F1E0808321833283E7
:1005F0004383548325833683478350876FEF70E0AE
:1006000072876187EAE0F1E080832183328343834C
:10061000548325833683478350878AE092E092870C
:1006200081876E2D7F2D802F912F58DE68DED7DEDB
:10063000C6DE7E0187E0E80EF11CDE0111966D0139
:10064000F601019111916F01D80115964D915D91BF
:100650006D917C91189711968D919D910D90BC9103
:10066000A02D481759076A077B0781F4F80180819C
:100670000184F285E02D082E000C990B0995D80114
:100680008C93F8011582168217821086F8018581F5
:100690009681A781B0850196A11DB11D85839683A2
:1006A000A783B087CE14DF0459F6809135018823E3
:1006B000E1F310923501C1CFA1E21A2EAA1BBB1B98
:1006C000FD010DC0AA1FBB1FEE1FFF1FA217B3071E
:1006D000E407F50720F0A21BB30BE40BF50B661F34
:1006E000771F881F991F1A9469F7609570958095F8
:1006F00090959B01AC01BD01CF010895EE0FFF1F46
:100700000024001C0BBE0790F691E02D0994F8948C
:02071000FFCF19
:0A07120001000000200115010A019A
:00000001FF
