:1000000045C0000060C000005EC000005CC0000091
:100010005AC0000058C0000056C0000054C0000084
:1000200052C0000050C000004EC000004CC0000094
:100030004AC000007EC0000046C0000044C000006E
:1000400042C0000040C000003EC000003CC00000B4
:100050003AC0000038C0000036C0000034C00000C4
:1000600032C0000030C000002EC000002CC00000D4
:100070002AC0000028C0000026C0000024C00000E4
:1000800022C0000020C000001EC0000011241FBEBE
:10009000CFEFD0E4DEBFCDBF11E0A0E0B1E0EAEAEF
:1000A000F3E000E00BBF02C007900D92A430B1074F
:1000B000D9F721E0A4E0B1E001C01D92A831B20758
:1000C000E1F7DDD070C19CCF609300017093010116
:1000D00080930201909303016093130170931401C4
:1000E000809315019093160108958BE08093810011
:1000F0008DE790E0909389008093880082E0809360
:100100006F00109285001092840080910001909100
:100110000101A0910201B09103018093130190931A
:100120001401A0931501B09316018FB780688FBF9B
:1001300008951F920F920FB60F9211248F939F93E1
:10014000AF93BF938091130190911401A091150179
:10015000B09116010197A109B10980931301909301
:100160001401A0931501B0931601892B8A2B8B2BB8
:1001700099F481E080931701809100019091010131
:10018000A0910201B0910301809313019093140197
:10019000A0931501B0931601BF91AF919F918F91DC
:1001A0000F900FBE0F901F90189580E480937C00F5
:1001B00087E880937A000895ECE7F0E09081987FDB
:1001C0008770892B8083EAE7F0E0808180648083F8
:1001D000808186FDFDCF809178009091790008950F
:1001E000CF93DF93EC0180E0E7DF909312018093DF
:1001F000110181E0E1DF9093100180930F012297BC
:1002000070F58091110190911201863B23E09207D5
:1002100090F087B5882331F087B5815087BD88B5C8
:10022000815088BD83ED90E30197F1F700C0000095
:1002300081E090E019C0C397A8F487B58F3F31F0F3
:1002400087B58F5F87BD88B58F5F88BD83ED90E3ED
:100250000197F1F700C0000081E090E005C080E068
:1002600090E002C081E090E0DF91CF91089583EFAC
:1002700084BD81E085BD80E887BD88BD089511B843
:100280008FEF82B984B915B802E310E0D0E0C0E086
:1002900051E040E030E020E004C0062F172FD82FB7
:1002A000C92F652F742F832F922F202F312F4D2F81
:1002B0005C2F57D0502F412F3D2F2C2F61157105EA
:1002C0008105910551F762E370E080E090E0202F16
:1002D000312F4D2F5C2F45D0E4E0F1E08FEF80838C
:1002E0002183328343835483258336834783508716
:1002F00080EF90E092878187602F712F8D2F9C2F48
:10030000E3DEF3DE52DFB3DFC4E0D1E04D815E8196
:100310006F81788589819A81AB81BC8148175907A3
:100320006A077B0761F48881E985FA85082E000C4D
:10033000990B099588831D821E821F8218868D81E4
:100340009E81AF81B8850196A11DB11D8D839E83CD
:10035000AF83B887809117018823E1F310921701CA
:10036000D5CFA1E21A2EAA1BBB1BFD010DC0AA1FEF
:10037000BB1FEE1FFF1FA217B307E407F50720F00E
:10038000A21BB30BE40BF50B661F771F881F991F89
:100390001A9469F760957095809590959B01AC01D2
:0A03A000BD01CF010895F894FFCFCE
:0403AA00010000004E
:00000001FF
