:1000000055C0000070C000006EC000006CC0000051
:100010006AC0000068C0000066C0000064C0000044
:1000200062C0000060C000005EC000005CC0000054
:100030005AC00000DBC1000056C0000054C00000E0
:1000400052C0000050C000004EC000004CC0000074
:100050004AC0000048C0000046C0000044C0000084
:1000600042C0000040C000003EC000003CC0000094
:100070003AC0000038C0000036C0000034C00000A4
:1000800032C0000030C000002EC00000800084009C
:100090009E00B100DD00F200D500D9002E01320132
:1000A00040015801790191019501990111241FBE68
:1000B000CFEFD0E4DEBFCDBF11E0A0E0B1E0EEEDC8
:1000C000F7E000E00BBF02C007900D92AA30B10725
:1000D000D9F721E0AAE0B1E001C01D92AA33B2072E
:1000E000E1F74FD27AC38CCFE09138018E2F90E0A8
:1000F0008830910508F083C0FC01EA5BFF4F64C3C0
:1001000081E08093380181C080912B01813009F416
:100110007CC030990DC086E08093380180E887BDAF
:1001200088BD8093B4008093B3008FEF8BB969C012
:1001300031996BC084E0809338017DC080912B01A0
:10014000813019F48093380160C0309B6BC03199C5
:1001500004C084E0809338016EC083E0809338014E
:1001600064C080912B01813019F4809338014DC017
:10017000309904C082E08093380154C0319904C0A2
:1001800084E08093380157C080913101843108F4B4
:100190004CC087E0809338018FEF87BD88BD809386
:1001A000B4008093B3001BB82CC082E08093380168
:1001B00039C081E08093380128C080912B018130C3
:1001C00019F48093380121C0319B35C080913001F2
:1001D000811104C085E08093380130C081E08093B4
:1001E000380113C080912B01813019F480933801BC
:1001F0000CC0319923C084E0809338011CC0109258
:1002000038018091380190E00895109230011092E9
:1002100031018FEF87BD88BD8093B3008093B40018
:100220001BB8EFCF10923101ECCF809131018F5F7D
:1002300080933101E6CF10923101E3CF81E08093CA
:100240003001DFCFE09137018E2F90E088309105AB
:1002500008F07FC0FC01E25BFF4FB6C281E08093F3
:10026000370179C080912B01813021F487E08093A0
:10027000370171C031996FC084E0809337016BC042
:1002800080912B01813021F487E08093370163C096
:10029000329B06C0319B04C086E08093370168C062
:1002A000329902C0319957C084E08093370153C01E
:1002B00080912B01813021F487E0809337014BC07E
:1002C000329B02C031994BC032990FC0319B0DC097
:1002D00085E08093370180E887BD88BD9FEF9BB99B
:1002E0008093B4008093B30036C084E080933701DC
:1002F00032C080912B01813021F487E08093370157
:100300002AC0319B28C0319B08C0809130018111E7
:1003100004C081E0809337011EC086E080933701DE
:1003200027C082E08093370116C083E080933701B5
:1003300016C080912B01813071F0809130018111C4
:1003400004C081E08093370106C082E080933701CA
:1003500002C0109237018091370190E008958FEF2D
:1003600087BD88BD1BB88093B4008093B300F3CFE2
:100370008FEF87BD88BD8093B4008093B3001BB816
:10038000EACF609300017093010180930201909382
:100390000301609332017093330180933401909391
:1003A000350108958BE0809381008DE790E0909374
:1003B00089008093880082E080936F00109285000E
:1003C000109284008091000190910101A09102019E
:1003D000B09103018093320190933301A0933401D3
:1003E000B09335018FB780688FBF08951F920F9229
:1003F0000FB60F9211248F939F93AF93BF93809169
:10040000320190913301A0913401B09135010197EF
:10041000A109B1098093320190933301A093340173
:10042000B0933501892B8A2B8B2B99F481E0809333
:1004300036018091000190910101A0910201B091DB
:1004400003018093320190933301A0933401B09360
:100450003501BF91AF919F918F910F900FBE0F907B
:100460001F90189593EF94BD81E085BD9093B000E7
:100470008093B1008FEF87BD88BD8093B4008093D7
:10048000B300089580E480937C0087E880937A002D
:100490000895ECE7F0E09081987F8770892B808346
:1004A000EAE7F0E0808180648083808186FDFDCF73
:1004B000EAE7F0E08081806180838091780090910C
:1004C00079000895CF93DF93EC0180E0E2DF909311
:1004D0002F0180932E0181E0DCDF90932D0180932A
:1004E0002C01229708F045C080912E0190912F0198
:1004F000863B23E09207F8F087B58F3F99F087B5E8
:10050000882381F087B5825087BD88B5825088BD29
:10051000E3EBF0E0808182508083E4EBF0E08081C7
:100520008250808383ED90E30197F1F700C00000D3
:1005300081E090E023C0C397F8F487B58D3F80F445
:1005400087B58E5F87BD88B58E5F88BDE3EBF0E031
:1005500080818E5F8083E4EBF0E080818E5F80831A
:1005600083ED90E30197F1F700C0000081E090E097
:1005700005C080E090E002C081E090E0DF91CF9183
:100580000895CF93DF9300D000D000D0CDB7DEB771
:1005900011B88FEF84B917B888B98AB912E300E0AF
:1005A000F12CE12C51E040E030E020E004C0162FB7
:1005B000072FF82EE92E652F742F832F922F212FCE
:1005C000302F4F2D5E2DDED0512F402F3F2D2E2D61
:1005D000611571058105910551F70F2EF2E3DF2EAC
:1005E000F02DC12CB12CA12C04C0D62EC72EB82EB4
:1005F000A92E612F702F8F2D9E2D2D2D3C2D4B2D33
:100600005A2DC0D01D2D0C2DFB2CEA2C6115710527
:100610008105910551F70F2EF2E3EF2EF02DF12C0D
:1006200000E010E004C0E62EF72E082F192F6D2DE4
:100630007C2D8B2D9A2D2E2D3F2D402F512FA2D06A
:10064000DE2CCF2CB02EA12E6115710581059105F0
:1006500051F762E370E080E090E02E2D3F2D402FB7
:10066000512F90D086E0E4E0F1E0DE011196019098
:100670000D928A95E1F7E0E2F1E08FEF808321832C
:10068000328343835483258336834783508764E7CB
:1006900070E072876187E5E1F1E080832183328336
:1006A00043835483258336834783508762E271E016
:1006B00072876187EAE0F1E080832183328343839C
:1006C0005483258336834783508782E692E092875E
:1006D00081876E2D7F2D802F912F53DE63DED2DE3A
:1006E000C1DEBB24B3947E0127E0E20EF11C82E060
:1006F000D0DE8F3E924018F0B0922B013FC0109296
:100700002B013CC0F601019111916F01D8011596A2
:100710004D915D916D917C91189711968D919D9160
:100720000D90BC91A02D481759076A077B0781F4EB
:10073000F80180810184F285E02D082E000C990BD0
:100740000995D8018C93F8011582168217821086BC
:10075000F80185819681A781B0850196A11DB11D03
:1007600085839683A783B087CE14DF0459F68091E2
:1007700036018823E1F310923601B9CFCE010196FC
:100780006C01C0CFA1E21A2EAA1BBB1BFD010DC03C
:10079000AA1FBB1FEE1FFF1FA217B307E407F50731
:1007A00020F0A21BB30BE40BF50B661F771F881F0D
:1007B000991F1A9469F760957095809590959B01A3
:1007C000AC01BD01CF010895EE0FFF1F0024001CF6
:0E07D0000BBE0790F691E02D0994F894FFCF30
:0A07DE0001000000200115010A01CE
:00000001FF
